:020000040040BA
:10000000582A412001894000FF884000FF884000B5
:10001000FF884000FF884000FF884000000000008B
:1000200000000000000000000000000081354000DA
:10003000FF88400000000000213640008936400063
:10004000FF884000FF884000FF884000FF88400094
:10005000FF884000FF884000FF884000FF88400084
:10006000FF88400000000000198440002D844000FB
:1000700041844000FF884000FF884000FF88400026
:100080005584400069844000FF884000FF8840009C
:10009000FF884000FF884000FF884000FF88400044
:1000A000FF884000FF884000FF884000FF88400034
:1000B000FF884000FF884000FF884000FF88400024
:1000C000FF884000FF884000FF884000FF88400014
:1000D00000000000FF88400000000000FF88400092
:1000E000FF884000FF884000FF884000FF884000F4
:1000F000FF884000FF884000FF884000FF884000E4
:10010000FF884000FF884000FF884000FF884000D3
:10011000FF88400000000000000000000000000018
:10012000FF884000FF884000FF884000FF884000B3
:10013000FF88400000000000FF884000FF8840006A
:1001400010B5054C237833B9044B13B10448AFF311
:1001500000800123237010BD280A40200000000009
:10016000C41F41000C4B43B10C480D4910B5AFF30F
:1001700000800C48036823B910BD0A48036833B9EE
:100180007047094B002BF7D0BDE810401847064BCD
:10019000002BF5D0184700BF00000000C41F41002D
:1001A0002C0A4020C41F41000000000010B5074B7E
:1001B000196891F82230003318BF01234A7C09687E
:1001C00003480078034CA04710BD00BF440A4020FC
:1001D0004D0A40209111400008B104207047324B75
:1001E0009A68324B03EB52135B02D96B02F01F0289
:1001F000012303FA02F20A4210D02B4B9B7B012B06
:1002000004D00422284B9A7302207047284B1B7895
:10021000002BF6D00022274B1A60F2E710B5224BD4
:100220009B7B042B05D0012B19D0032B2CD1032051
:1002300010BD01221C4B9A731E4B1B683BB91C4B13
:100240001A701C4B1C4959601A60022010BD002214
:10025000174B1A7019481A4B9847022010BD144BBF
:100260001B783BB1134B1B6813F4803F1AD000225C
:10027000104B1A600C4B02229A73124A1A60012228
:100280005A74002283F8222000220F4B1A70064C69
:100290000E4B1C600E4B9847A07B022814BF002019
:1002A000012010BD022010BD0C00402007072000D7
:1002B0004C0A402010E000E060343C026BAF0303C6
:1002C00001004020801A06004D0A4020440A4020C8
:1002D000AD01400038B5049C520242EAC36242EAD2
:1002E000017242EAC0722178114341F23430054B69
:1002F0009847054608B9284638BD034B98472070F3
:10030000F9E700BF791240009D12400010B5094B7B
:100310001B689989090441F60930074B9847044640
:1003200008B9204610BD034B18681230034B98479C
:10033000F7E700BF440A402079124000A5124000B0
:1003400008B5044B1B7803B108BD0020024B984749
:10035000FAE700BF4D0A40205512400008B51020B2
:10036000054B98470422054B9A73FF22044B1A70E1
:10037000044B984708BD00BF218640000C00402078
:100380004D0A4020551140002DE9F04395B0A74B90
:1003900098470446012805D0A54B9847204615B03C
:1003A000BDE8F08314AE082306F8453DA14B1B6859
:1003B0000127DF7300251D749D819F4B9847009690
:1003C0002B460622294638469C4EB04729464FF414
:1003D00080409B4B984730B9964B1B6803249C7315
:1003E000934B9847DAE74FF4D57145F20850944B98
:1003F0009847002840F093804FF00009002144F214
:1004000005508F4B9847002840F09780894B1B6818
:10041000DB7B13F0010F40F0B580002145F20310A3
:10042000874B98470028D7D0824D2E68854B984738
:10043000000CB0812B68DB7B13F0010F34D0824BB2
:1004400098470028C8D02B685A7DC2F3C30002F039
:1004500007027E4951F822104FF47A7202FB01F232
:100460007B4951F8201002FB01F21A609A7C920934
:1004700040F00C82997E587E1A7E920242EA8002F7
:1004800042EAA112187FD97E490041EAE011C2F385
:100490000B02013201F0070102318A40D97D01F0DF
:1004A0000F018A40920A5A60624B1B6899890904BD
:1004B00043F20710624B984700288DD05D4B1B68B4
:1004C000DA7B12F0010F40F0EE815A4B1B68DB7BA8
:1004D00013F0040F00F09D8209250027574EA5F167
:1004E000090303AA134400933B462A46394638467B
:1004F000B04701350D2DF2D19DF80D309DF80C90CF
:1005000009EB03299DF80E3009EB03499DF80F30E4
:1005100009EB03694E464FF00008484F3AE2494B59
:100520009847B0F1FF3F00F04A83C0F30B00B0F5ED
:10053000D57F7FF451AFB94660E7424B984710F042
:10054000E04F3FF463AF41F2893544F205583C4E29
:100550003C4F00F4FC114046B04700283FF43CAF4C
:10056000B847002802DB013DF3D135E710F0006FFA
:1005700004D1304B1B680422DA734EE72D4B1B6805
:100580000522DA73B9F1000F324F14BFB9464FF4A8
:10059000FC1940F635054FF00008294E294F414619
:1005A00041F23710B04748B1494644F22950B047AC
:1005B00020B1B847002820DB013DF0D11D4B1B685E
:1005C0000222DA7300214FF480401D4B9847002827
:1005D0003FF402AF41F26905DFF87880184E194FF9
:1005E000414644F20150B04700283FF4F5AEB84709
:1005F000002831DB013DF3D1EEE610F0804F05D04D
:100600000C4B1A68D37B43F00803D373094B1B6868
:10061000DB7B13F0010F3FF400AF002145F6023001
:10062000074B984700287FF4F8AED5E6D901400083
:1006300041034000440A402057124000D5024000C8
:10064000791240009D1240000D0340001C0641003D
:100650003806410000801F4000F0C040B0F1804FDC
:1006600027D0002145F60230A54B984700283FF4DB
:10067000B3AEA44B1B6801229A814FF4803141F242
:1006800003109F4B984700283FF4A6AE9E4B984717
:1006900000283FF4A1AE9B4B1A68937CC3F38303FD
:1006A000013B032B0CD8DFE813F0CD00D000D300C2
:1006B000D600944B1A68D37B43F00803D373D0E77A
:1006C00012231374537DC3F3C30003F007038F4950
:1006D00051F823104FF47A7303FB01F38C4951F85E
:1006E000201003FB01F31360917E507E137E9B026A
:1006F00043EA800343EAA113C3F30B0340F6FF71FF
:100700008B420FD0107FD17E490041EAE0110133C6
:1007100001F0070102318B40D17D01F00F018B40C8
:100720009B0A53609189090443F20710744B984760
:1007300000283FF451AE734B1B681B7C3F2B40F2EB
:1007400097800021009101234FF400727148724D8F
:10075000A84700283FF440AE0025704E03A8B047DC
:1007600000283FF439AE0135ADB2322DF6D1039EEB
:1007700006F00206634B1B689A7E597E1B7E9B0225
:1007800043EA810343EAA213C3F30B0340F6FF726B
:1007900093420ED1614F04A8B84700283FF41CAE25
:1007A0000135ADB2352DF6D9564B1A68049B5B085E
:1007B00053605A4F7F2D51D9594B1878594B984750
:1007C00003281DD9564B1878564B984705460428E0
:1007D0004CD0554B5549082818BF194643F206100E
:1007E000474B984700283FF4F7AD514B984710F01E
:1007F000800F7FF4F1AD434B1B685D744D4B984700
:100800004D4B9847BEB1B0B14C4943F206103C4B3A
:10081000984700283FF4E0AD454B984710F0800F13
:100820007FF4DAAD374B1B68012283F82220444A5B
:100830001A60404B98470A254FF4007841F2101790
:100840002F4E1DE0142313743CE72223137439E761
:100850003023137436E74023137433E704A8B847F2
:1008600000283FF4B9AD0135ADB2A3E73549B5E78E
:10087000304B9847DFE7013D15F0FF053FF4ACAD85
:1008800041463846B0470028F5D00EE1D97E987E23
:100890005A7E120442EA00220A43C2F315020132D0
:1008A00052025A6000E69989090441F23710144B4C
:1008B000984700283FF490AD0123009308220021BF
:1008C0002148154DA84700283FF486AD012104A812
:1008D0001E4B984700283FF47FAD1D4B98470028DA
:1008E0003FF47AAD9DF8103003F00F03012B36D0A2
:1008F00083B3022B38D0034B1B6810221A74E4E533
:1009000079124000440A40200D0340001C064100BB
:10091000DC05410008110800D51240009D1340007D
:100920004D0A4020811140000000B7010002B701CC
:100930009D124000AD0140008B1140000001B90341
:10094000007519030001B7013311080011144000AC
:10095000091540009B4B1B6810221A74B5E5994B92
:100960001B681A221A74B0E59DF81230DB09954B0A
:100970001B6814BF302220221A74A6E59DF811309E
:10098000002B3FF429AD02331E4409F580739E42CB
:100990003FF622AD002504AB2B4400934346721969
:1009A00041464046B8470135032DF4D19DF810303B
:1009B000FF2B3FF411AD222BE0D19DF81230002B1C
:1009C000DCD104AD06F106094FF000087E4F00951A
:1009D0004346324641464046B847013601354E450A
:1009E000F5D19DF81530322B28BF3223754A126895
:1009F000C3F3C30003F00703744951F823104FF405
:100A00007A7303FB01F3724951F8201003FB01F3E1
:100A10001360704B1878704B9847032822D9694BA4
:100A20001B68DB7B13F0040F46D1664B1B68DA7B37
:100A300012F0010F14D09989090441F23710674B65
:100A4000984700283FF4C8AC022141F20610634BDE
:100A5000984700283FF4C0AC5A4B1B6804225A74D4
:100A60005F4B98475F4B984780B1564B1B68DB7BC9
:100A700013F0040F41D1534B1B68DA7B12F0010FC6
:100A800002D01B7C102B5ED8554B98474D4B1B68F2
:100A9000DB7B13F0010F08D04FF4007141F210100E
:100AA0004E4B984700283FF497AC464B1B680022FA
:100AB0009A734D4B984771E404AB009300230822CE
:100AC00019461846404DA84700283FF485AC9DF9CB
:100AD0001030002BA9DA14AB022203F8402D00934A
:100AE0000123072200211846A84700283FF474ACD0
:100AF000344B1B6804225A7497E704AB009300231D
:100B0000132219461846304DA84700283FF464AC1C
:100B10009DF8103013F0010FADD014AB022203F892
:100B2000402D00930123132200211846A8470028D6
:100B30003FF452AC234B1B68012283F822201A6831
:100B400052001A6097E740252A46002104A8274B47
:100B50009847012300932A4625492648264DA84751
:100B600000283FF439AC012104A8244B9847002801
:100B70003FF432AC224B984700283FF42DAC214B78
:100B8000984710F0800F7FF427AC9DF8203003F0D9
:100B90000F030F2B3FF478AF9DF82D309DF82C20DC
:100BA00053EA02237FF418AC174B9847054B1B6898
:100BB000012283F822201A6852001A6064E74FF07D
:100BC00000091BE4440A4020D50240001C064100F5
:100BD000380641004D0A4020811140007912400042
:100BE000AD0140008B114000410340002D984000B2
:100BF00001FFFF8006110800D512400011144000CB
:100C0000091540009D1240005712400008B5054BE1
:100C1000984708B1002008BD034B9847034B1B6859
:100C2000D87B08BDD901400041034000440A402060
:100C300008B5054B984708B1002008BD034B9847FD
:100C4000034B1B68586808BDD901400041034000B0
:100C5000440A4020002070472DE9F04782B08A46C0
:100C60009146264B9847804618B1404602B0BDE8F1
:100C7000F087234C234E244D244F3368998909046F
:100C800041F20D10A84728B1B84710F4807F17D162
:100C9000013CF2D11E4B98474FF00508E5E71B4B8E
:100CA00098471C4B034033B91B4BA3F800901B4BD8
:100CB000A3F80090D9E7164B98474FF00508D4E702
:100CC000174B1848B9F1010F98BF18460D4B1B6818
:100CD000DB7B13F0080F01D14FEA4A2A012300936E
:100CE0004B464FF4007251460F4CA0470028D6D116
:100CF000074B98474FF00508B7E700BFD901400000
:100D0000410D0300440A4020791240009D1240002A
:100D100041034000000058E4480A40204A0A4020AD
:100D20001111080012111000D512400010B50C4628
:100D3000064B984720B90022054B1A80052010BDAC
:100D4000034A13881C1B1480002010BD111440009E
:100D5000480A402010B50446134B984708B90520AF
:100D600010BD84B10022114B1A80114B1B88012B3E
:100D70000FD0002143F20C100E4B984768B10E4B78
:100D80009847002010BD094B1B88002BEDD0002098
:100D900010BD094B9847002010BD002143F20C10F4
:100DA000044B9847EBE700BF09154000480A402074
:100DB0004A0A4020791240004103400070B582B0D9
:100DC0000E461546164B98470446B8B9154B1648BB
:100DD000012D98BF1846154B1B68DB7B13F0080FDD
:100DE00008BF7602012300932B464FF40072314670
:100DF0000F4EB04728B90F4B98470524204602B044
:100E000070BD0D4B98470D4B034023B90C4B1D8013
:100E10000C4B1D80F2E7074B98470524EEE700BF17
:100E2000D90140001891080019911000440A40208F
:100E3000D5124000410340009D124000000058E4DC
:100E4000480A40204A0A402010B50C46064B9847F5
:100E500020B90022054B1A80052010BD034A1388D3
:100E60001C1B1480002010BD6D154000480A402056
:100E700010B50446124B984708B9052010BD84B13F
:100E80000022104B1A80104B1B88012B0FD0002121
:100E900043F20C100D4B984768B90D4B984705204D
:100EA00010BD084B1B88002BEDD0002010BD084B57
:100EB0009847002010BD064B9847002010BD00BF8A
:100EC00065164000480A40204A0A40207912400036
:100ED0004103400010B504460F4B9847012818D035
:100EE00018B1022810D0012010BD0C4B1B5D0BB1B6
:100EF000022010BD20460A4B984700F0030000284E
:100F000014BF0020022010BD0022044B1A550220FD
:100F100010BD032010BD00BF89034000500A4020CF
:100F20000D0C400008B50020014B984708BD00BFDC
:100F3000D50E400038B504460D46044B9847400096
:100F4000013828602046024B984738BD310C4000DC
:100F5000D50E400008B501460020014B984708BD5A
:100F6000350F400008B50020014B984708BD00BF71
:100F7000550C400010B5144601220A4B984720B189
:100F800002280CBF0220012010BD01212046064B83
:100F9000984708B1012010BD044B9847003018BF96
:100FA000012010BD590C40002D0D4000550D400092
:100FB00008B50A4601460020014B984708BD00BF0E
:100FC000750F400010B5144601220A4B984720B116
:100FD00002280CBF0220012010BD01212046064B33
:100FE000984708B1012010BD044B9847003018BF46
:100FF000012010BDBD0D4000490E4000710E4000A3
:1010000008B50A4601460020014B984708BD00BFBD
:10101000C50F400008B10120704708B5014B984743
:1010200008BD00BF250F400008B10120704708B57A
:101030000846014B984708BD550F4000B0FA80F0B4
:101040004009704708B10120704708B5014B984727
:1010500008BD00BF650F400008B10120704708B50A
:1010600008461146014B984708BD00BFB10F40002C
:1010700008B10120704708B508461146014B984752
:1010800008BD00BF0110400070B44FF080435D68A0
:101090009C68D868D9695A6D80261E605D609C6026
:1010A000D860D9615A6500221A6505221A6070BCA1
:1010B0007047000008B501F03F03184311F4807F2A
:1010C00004D011F4006F0ED040F4845011F4804F1E
:1010D00018BF40F400604FF080431A615861184611
:1010E00001F480520DE011F4005F14BF40F486500B
:1010F00040F48250EAE713F41B0F0CD113F0010FF8
:101100000DD1036C002AF6D013F41F0FF6D0104B4C
:101110009847002008BD0E4B9847002008BD11F4E9
:10112000005F03D1012008BD012008BD4FF08043BE
:101130001B6C4FF0FF324FF0804103F03003202B47
:10114000F2D00B6C013AF8D1014B9847002008BD52
:101150008910400010B51220084CA0473A20A04743
:101160004FF0804372229A60DA6111225A654FF47F
:10117000E0625A6005221A6010BD00BF218640005F
:1011800000280CBF04200020704701207047000099
:101190007BB34FF08040436D43F4807343652B4B2A
:1011A000B3EB410F37D310B42948B0FBF1F301FB87
:1011B000130129BB023B4FF08041486820F0FF003B
:1011C00048604C68C3F347002043486013F0010FA8
:1011D00018D04B6843F480334B60042A19D0082A96
:1011E0000CBFC02200224FF08043DA605DF8044B50
:1011F00070474FF08040436D23F480734365CEE722
:10120000013BD8E74FF080414B6823F480334B60BB
:10121000E3E78022E7E74FF08043596821F0FF01C0
:101220005960596859604FF080414B6823F480330E
:101230004B60042A07D0082A0CBFC02200224FF0BE
:101240008043DA6070478022F9E700BF7FD1F00861
:1012500080D1F00870474FF080435A6822F4605202
:101260005A6000221A614FF410625A611A46136CD8
:1012700013F0010FFBD0704710B54FF080435A6850
:1012800022F460525A6000241C659C610A460146A3
:101290002046014B984710BDB51040004FF08043E9
:1012A000186A704710B4031D14304FF08044226A4E
:1012B000110E03F8041C110C03F8031C110A03F8A7
:1012C000021C03F8012C04338342F0D15DF8044B77
:1012D0007047000070B59DF8104084B34FF48075DE
:1012E0004FF0804425654FF080456C6844F4C0544D
:1012F0006C6012F0030F27D06C6844F400546C60EB
:1013000000F40044002C14BF4FF480344FF4A024A8
:1013100010F4803F1FD143EA02454FF08046B5618B
:1013200010F4003F2BD110F4802F2BD110F4002F9C
:1013300018D110F4801F18BF44F4002412E00025D7
:101340004FF080442565CEE74FF080456C6824F46B
:1013500000546C60D4E744F40014C2F308054FF065
:101360008046B5610026094D2E60094D2A80094A44
:1013700013800A4601462046074B984770BD44F447
:101380002014EFE744F48014ECE700BF580A402033
:10139000520A4020540A4020B510400008B54FF0D2
:1013A0008041164A0B6C13421DD113F0020FF9D085
:1013B0004FF080431B6B0360114A136804331360C2
:1013C000104A1188104A128802FB01F2934212D38C
:1013D0004FF08041094A0B6C134208D113F0006FA3
:1013E000F9D0012008BD094B9847002008BD074BE4
:1013F0009847002008BD012008BD00BF000060C064
:10140000580A4020520A4020540A402089104000C7
:101410002DE9F04188B004460D462022002168469F
:10142000304B98470122304B1A62304B1B8805FB2A
:1014300003F514F0030F4AD12D4B0393AB0800932F
:101440004FF08042536823F400535360294B0193BB
:1014500002946A4600212448274B9847274BD3F82B
:101460008030C3F34E3703F007000430C3F3C90ED6
:10147000BEFA8EFC0CF01F0CBFF34F8F4FF0FF3401
:1014800004FA00F807FA00F004FA0CF40EFA0CFC67
:101490001A4E7246634643EA0001C6F87412013AD6
:1014A0002344B2F1FF3FF6D1013F4044B7F1FF3F83
:1014B000EFD1BFF34F8FBFF36F8F01200A4BD8617D
:1014C0000F4A13682B44136008B0BDE8F0810D4B40
:1014D000039300954FF08042536843F400535360E8
:1014E000B4E700BF2D98400000800740520A40201A
:1014F00001300400000200409517400000ED00E0BC
:10150000580A40200120040070B5124B1B88124A73
:10151000128802FB03F2114B1C684FF08040104907
:10152000104E09E0104B984701220E4B1A62002022
:1015300070BD13F0006F0AD1036C0B42F2D1A242CE
:10154000F7D9F56D15F0010FF3D0012070BD012022
:1015500070BD00BF520A4020540A4020580A402063
:10156000000060C000800740891040002DE9F04174
:1015700088B004460D46202200216846304B98472B
:101580000122304B1A62304B1B8805FB03F514F027
:10159000030F4AD12D4B0393AB0800934FF08042C9
:1015A000536823F4005353600194294B02936A4615
:1015B00000212448274B9847274BD3F88030C3F3AA
:1015C0004E3703F007000430C3F3C90EBEFA8EFC99
:1015D0000CF01F0CBFF34F8F4FF0FF3404FA00F8EC
:1015E00007FA00F004FA0CF40EFA0CFC1A4E7246DC
:1015F000634643EA0001C6F87412013A2344B2F18B
:10160000FF3FF6D1013F4044B7F1FF3FEFD1BFF3B9
:101610004F8FBFF36F8F01200A4BD8610F4A1368B9
:101620002B44136008B0BDE8F0810D4B0393009587
:101630004FF08042536843F400535360B4E700BF57
:101640002D98400000800740520A402011500100B0
:10165000000200409517400000ED00E0580A4020CD
:101660001140010070B5124B1B88124A128802FB10
:1016700003F2114B1C684FF080401049104E09E0F6
:10168000104B984701220E4B1A62002070BD13F0D8
:10169000006F0AD1036C0B42F2D1A242F7D9F56D6B
:1016A00015F0010FF3D0012070BD012070BD00BF07
:1016B000520A4020540A4020580A4020000060C0CE
:1016C000008007408910400030B485688468A542D6
:1016D00003D085688468AC42FBD161B1C4F301508A
:1016E00000EB8005C4F3034000EB450014F4800FC9
:1016F00018BF0C30086042B1C4F3023101EB810124
:10170000C4F3032000EB4101116043B1C4F30212A2
:1017100002EB820204F00F0404EB42041C6030BCB4
:101720007047F0B4049EC568C468A54203D0C5687C
:10173000C468AC42FBD199B1C4F3033000EB800024
:10174000C4F3032707EB4007C4F3021000EB800546
:1017500004F00F0000EB4500642505FB00700860F5
:1017600042B1C4F3005081000844C4F3034101EBCB
:101770004001116043B1C4F3017202EB8202C4F371
:10178000036101EB42021A6016B1C4F342543460A3
:10179000F0BC704700EB8111CB6D53680B6693680A
:1017A0004B66136823F07F430B671369C3F30B0386
:1017B0004B675369CB67936923F07F43C1F880304F
:1017C000D36923F07F43C1F88430D3688B677047B7
:1017D000012801D90120704710B504460A4B9847EB
:1017E000032806D12046084B9847032801D1012041
:1017F00010BD38B92046054B9847002814BF042077
:10180000002010BD012010BD151040004510400003
:1018100008B5054B984720B102280CBF03200120D2
:1018200008BD002008BD00BF151040002DE9F04F95
:1018300083B080460D4614461F46154B984718B98D
:10184000012003B0BDE8F08F064601A94046114BC8
:101850009847B14606FB0742019B03FB06639A4289
:1018600001D90420EDE7BA4677B176020027DFF808
:1018700028B02A4621464046D84738B901374C445B
:1018800035445745F5D1DCE70020DAE70120D8E7F9
:101890003D10400029104000591040002DE9F04F44
:1018A00083B080460D4614461F46154B984718B91D
:1018B000012003B0BDE8F08F064601A94046114B58
:1018C0009847B14606FB0742019B03FB06639A4219
:1018D00001D90420EDE7BA4677B176020027DFF898
:1018E00028B02A4621464046D84738B901374C44EB
:1018F00035445745F5D1DCE70020DAE70120D8E789
:101900003D104000291040007110400010B582B019
:101910001446032925D8DFE801F01D070F02012333
:101920001360002002B010BD01A9114B9847019B24
:10193000013323600020F5E70E4B9847082812D8A2
:101940004FF48B7323FA00F010F0010F0DD000203C
:101950002070E7E7084B984700280CBF00200320C1
:10196000E0E70420DEE70120DCE70120DAE700BF42
:10197000291040003D1040001510400030B58BB0DC
:10198000114C07AB08AA09A92046104DA84703AB84
:10199000009304AB05AA06A920460D4CA047049B62
:1019A0001B04059843EA4053099843EAC02308986A
:1019B00043EA4013079843EA50030698A0F2BC702C
:1019C00043EA40600BB030BD60180E40C9164000BD
:1019D000231740003AB101388A1811F8013B00F88A
:1019E000013F9142F9D1704722B1821800F8011BE2
:1019F0008242FBD1704702398369023B994204D28B
:101A00008378806A01FB030070470020704702461C
:101A100000F10B010020C30143EA500312F8010B4F
:101A200050FA83F3D8B28A42F5D1704798B108B51D
:101A300002780AB9092008BDC2888A4201D009206B
:101A400008BD4078054B984700F00100002814BFFE
:101A50000320002008BD0920704700BF1118400076
:101A600038B5044601230A4600F1300140781D4D87
:101A7000A84708B1032038BD94F82F2294F82E32DD
:101A800043EA02231BB2184A934201D0022038BD18
:101A900094F8692094F868301B0443EA026394F8D0
:101AA0006620134394F8672043EA022323F07F4320
:101AB0000E4A934213D094F8853094F884000004C1
:101AC00040EA036094F88230184394F8833040EA87
:101AD000032020F07F40801A18BF012038BD00206D
:101AE00038BD00BF2D18400055AAFFFF46415400E5
:101AF000F8B503681C78303C092C0AD85D783A2D7B
:101B000001D0002406E002330360072C02D90B2029
:101B1000F8BD0024AE4B53F824500D60002D00F0AA
:101B20003E8116462B787BB16878AA4B984710F017
:101B3000010F09D1002E00F0348100F004000028CC
:101B40000CBF00200A20F8BD00232B70E0B26870A3
:101B5000A14B984710F0010F01D00320F8BD26B12A
:101B600010F0040F01D00A20F8BD002128469B4B3D
:101B70009847012806D00024032800F01481C8B13A
:101B80000D20F8BD95F8F2310BB90D20F8BD95F890
:101B9000F93195F8F841240444EA036495F8F631E4
:101BA0001C4395F8F73144EA0324214628468B4B21
:101BB0009847E1E795F83C2095F83B3043EA02234B
:101BC0001BB2B3F5007F01D00D20F8BD95F847306A
:101BD00095F8462052EA03220DD195F8573095F832
:101BE0005620120442EA036295F854301A4395F8DD
:101BF000553042EA0322EA6195F840E085F803E0B7
:101C00000EF1FF33DBB2012B01D90D20F8BD95F8A1
:101C10003D60AE70002E00F0C880731E334201D0CC
:101C20000D20F8BD95F8423095F8411041EA0321A6
:101C3000298111F00F0F40F0BA8095F8440095F813
:101C4000433053EA00230DD195F8530095F85230F4
:101C50001B0443EA006395F85000034395F85100D4
:101C600043EA002395F83F0095F83E7057EA0027B5
:101C700000F09F8002FB0EFE07EB111070448342C0
:101C8000C0F099801B1AB3FBF6F3002B00F095808F
:101C900040F6F576B3428CBF022601264FF6F57C5E
:101CA000634500F2A5800233AB612044A8623C4446
:101CB0002C62002900F0898074446C62022E0BD1E2
:101CC0005B0003F2FF13B2EB532F7CD34FF0FF33D3
:101CD0002B610023EB6051E003EB430103F00103B0
:101CE00003EB5103EDE795F82F2295F82E3243EAE6
:101CF00002231BB23A4A93424BD195F8332095F810
:101D000032301B0443EA026395F83020134395F800
:101D1000312043EA0223334A93423CD195F81722FB
:101D200095F816321B0443EA026395F81422134314
:101D300095F8152243EA02232B4A93422DD195F8B8
:101D40001F2295F81E321B0443EA026395F81C22F9
:101D5000134395F81D2243EA0223EB6095F81B22FA
:101D600095F81A321B0443EA026395F818221343CC
:101D700095F8192243EA02232B6103262E701B4A91
:101D8000138801339BB21380EB800020E862287136
:101D9000F8BD0326F2E70326F0E70326EEE70C2062
:101DA000F8BD0020F8BD0120F8BD0D20F8BD0D20C4
:101DB000F8BD0D20F8BD0D20F8BD0D20F8BD0D209B
:101DC000F8BD0D20F8BD0D20F8BD0D20F8BD00BFF9
:101DD0005C0A402011184000D1174000611A4000F1
:101DE00055AAFFFF52526141727241617C0A402044
:101DF0000233AB612044A86227442F620029E0D15E
:101E000095F85F0095F85E10090441EA006195F8C5
:101E10005C00014395F85D0041EA002169629B0086
:101E200003F2FF13B2EB532FC9D34FF0FF332B61F3
:101E30000023EB606B7195F8613095F8602042EA01
:101E4000032222446A61012305F130016878034CC2
:101E5000A04700283FF447AF03268FE72D18400026
:101E60002DE9F04701F109020369002B5ED04469B6
:101E700094F80CE02378202B1DD0254601F11107A2
:101E80004FF0E5080EF0080C08E0434602F8013B6D
:101E9000BA4210D015F8013F202B0CD0052BF4D0FE
:101EA000BCF1000FF2D0A3F14106F6B2192EEDD825
:101EB0002033DBB2EAE7237A202B20D0551C2E23D7
:101EC0001370237A202B19D004F1080702F1040CB7
:101ED0002A460EF0100507E002F8013B62450ED0DD
:101EE00017F8013F202B0AD0002DF5D0A3F14106B1
:101EF000F6B2192EF0D82033DBB2EDE72A46E37AAA
:101F00000B72E57FA37F1B0443EA0563257F2B4308
:101F1000657F43EA05230B60657E237E43EA052344
:101F20008B80E57DA37D43EA0523CB8000231370DE
:101F30008F692FB3CB691BB30369F3B1028C4FF6E2
:101F4000FF739A421ED0D0F81C80B8F80000D8B1B8
:101F50000D467E1E0024A246DFF838905146C84741
:101F6000A0B1EB69013BA34212D9013406F8010F7D
:101F700038F814000028F1D100E0002400233B557C
:101F8000BDE8F0870024F9E70024F7E70024F5E72F
:101F90000024F3E7E93340002DE9F047C76A8F4298
:101FA00035D00E46044603791BB92EBB0020BDE890
:101FB000F08700F1300801233A4641464078184D39
:101FC000A84738BB00232371236AE26913449F4268
:101FD000EBD2E578012DE8D94FF0010ADFF8409007
:101FE000E3691F4453463A4641466078C847013D7D
:101FF000EDB2012DF4D1D8E70123324604F13001CE
:102000006078084DA84740B9E662BDE8F087002037
:10201000BDE8F0870120BDE8F0870120BDE8F0872A
:102020009D1840002D18400001296AD9F8B5836930
:10203000994268D20C4606460378022B2FD0032B18
:1020400041D0012B02D04FF0FF30F8BD01EB51071A
:10205000016A01EB57212D4B984710B14FF0FF302B
:10206000F8BDC7F30803334493F830500137316AA1
:1020700001EB57213046254B984710B14FF0FF3008
:10208000F8BDC7F30807F01990F8300045EA0020C2
:1020900014F0010F14BF0009C0F30B00F8BD016A72
:1020A00001EB1421194B984710B14FF0FF30F8BDE8
:1020B000600000F4FF70304490F8313090F8300048
:1020C00040EA0320F8BD016A01EBD4110F4B984799
:1020D00010B14FF0FF30F8BDA00000F4FE7000F129
:1020E00030023244D17893781B0443EA01633044D0
:1020F00090F830001843537840EA032020F07040F5
:10210000F8BD012070470120F8BD00BF991F4000B5
:10211000F8B505460C46C180816801293DD00368A9
:102120009A69914201D30220F8BD61B91A78032A55
:1021300006D00022EA601A89A24221D80220F8BD06
:10214000596A0029F5D09E783601B44210D3174F52
:102150002868B8470146B0F1FF3F20D0012820D9B8
:102160002B689B6998421ED2A41BA4B2A642EFD949
:10217000E96028680E4B984700EB1410286103E0D3
:102180005B6A03EB14132B612B68303304F00F04EC
:1021900003EB44146C610020F8BD0220F8BD01205F
:1021A000F8BD0220F8BD0220F8BD00BF2920400084
:1021B000F71940002DE9F041012940F28F80836931
:1021C000994201D302278AE015460C460646037859
:1021D000022B4ED0032B5FD0012B03D0022701230B
:1021E00033717CE001EB5108016A01EB58213D4B52
:1021F000984707460028F2D1C8F3080314F0010FEE
:102200001CD0334493F8302002F00F0242EA05124A
:1022100083F8302008F1010801233371316A01EBA2
:10222000582130462F4B9847002853D1C8F308084F
:10223000C5F30712B04488F83020D0E7334483F860
:10224000305008F1010801233371316A01EB582144
:102250003046244B984700283ED1C8F3080806EBC7
:10226000080393F8303023F00F03C5F303221A4319
:10227000E0E7016A01EB14211A4B98470746002852
:10228000ADD1630003F4FF73334483F83050C5F3DA
:10229000072283F83120A2E7016A01EBD411114B28
:1022A0009847074600289AD1A10001F4FE7101F178
:1022B00030033344DA781206314402F070422A4384
:1022C00081F83020C2F307215970110C9970120E59
:1022D000DA7084E7074682E7074680E70227384638
:1022E000BDE8F081991F40002DE9F0410546884680
:1022F00041B9C66886B183699E4228BF012634462B
:10230000274F17E0264B9847034601283ED9AA6974
:10231000904240D34646F2E70126F0E721462846A0
:10232000B847034670B1B0F1FF3F34D0012832D036
:10233000B4422FD00134AB699C42EFD3012E27D990
:102340000224EBE76FF0704221462846154B984770
:10235000034610B9B8F1000F0BD18BB9EC602B69B3
:10236000B3F1FF3F1AD0013B2B6101236B71234670
:1023700011E02246414628460A4B98470346ECE7BF
:10238000012B0CBF4FF0FF33012304E0012302E0D7
:10239000002300E000231846BDE8F0812346FAE759
:1023A00029204000B521400001292ED92DE9F8430C
:1023B00004460E468369994203D302221046BDE8C3
:1023C000F883164F4FF00009DFF8548003E02E46E3
:1023D000A369AB42F2D931462046B8470546B8B1A9
:1023E000012817D0B0F1FF3F16D04A4631462046AB
:1023F000C04702460028E1D12369B3F1FF3FE6D090
:102400000133236101236371E1E702221046704723
:102410000022D3E70222D1E70122CFE729204000A2
:10242000B52140002DE9F84FC4880134A4B214B995
:102430000420BDE8F88F036913B90420BDE8F88FC4
:102440000E46054614F00F0710D101330361C16831
:1024500031B903681B89A34208D80420BDE8F88F6E
:1024600000688378013B13EA141308D0EC802B68D2
:10247000303303EB47136B610020BDE8F88F324B1C
:102480009847804601284DD9B0F1FF3F4DD02868CC
:10249000836998453ED316B90420BDE8F88FE968F2
:1024A0002A4B9847804610B90720BDE8F88F0128CD
:1024B0003ED0B0F1FF3F3ED000212868244B984722
:1024C00000283BD128684FF4007200213030214BA6
:1024D00098472E68414630461F4B9847F0620026C9
:1024E0004FF0010BB246DFF868902B689978F2B292
:1024F00091420BD983F804B051462868C847013689
:10250000F8B92A68D36A0133D362EEE71646DA6A6D
:10251000961BDE62C5F80C80414628680E4B984732
:102520002861A3E70220BDE8F88F0120BDE8F88FFD
:102530000220BDE8F88F0120BDE8F88F0120BDE83A
:10254000F88F0120BDE8F88F29204000E9224000E3
:10255000991F4000E9194000F71940002DE9F04F9C
:1025600085B005460021614B9847804608BB4FF077
:10257000FF0BD9465E4FDA4694E00F2A1DD0B9F121
:10258000000F04D120465B4B9847824511D04FF68F
:10259000FF732B84AB69DA7A12F0010F79D104F161
:1025A0000B0014F8011B13F8012B91426BD18442EC
:1025B000F7D1404605B0BDE8F08FD5F81C80B8F1E2
:1025C000000F68D016F0400F0CD094F80DA006F064
:1025D000BF06EB882B8494F80DB0D34507D04FF09D
:1025E000FF0958E0B145F6D04FF0FF0953E094F8E9
:1025F00000A02AF0400A0AF1FF3A0AEB4A030AEB6C
:102600008303DFF8FC9009F10D0A01200396CDF851
:1026100004B01E4602950FE01846374B9847834694
:10262000FE2E5AD8751C38F81600334B9847834550
:1026300057D12E46D14513D019F8012BA31859783C
:10264000A35C43EA01230028E6D14FF6FF729342D0
:10265000F0D0DDF804B0029DDA464FF0FF091AE031
:10266000DDF804B03246039E029D237813F0400F3C
:1026700004D018B138F81230002BEDD1013E5FFACA
:1026800086F9DA4607E04FF0FF0904E04FF0FF0952
:1026900001E04FF0FF0900212846184B984780467B
:1026A000002886D129692868B8478046002880D14B
:1026B0006C69267876B1E37A03F03F02E52EE5D027
:1026C00013F0080F3FF459AF0F2A3FF456AF4FF005
:1026D000FF09E0E74FF004086BE7DDF804B0029D66
:1026E000BAE7DDF804B0029DB6E700BF1121400053
:1026F000991F40000F1A4000293440002524400053
:10270000780641002DE9F04F89B004468569D0F87C
:102710001CB00C22294605A8A84B98479DF81F30ED
:1027200013F0010F79D00023EB72E3610B2205A9AE
:102730002846A24B984701273B464FF02008DFF878
:102740009C92DFF878A232E03B4630E0134602E08C
:10275000002300E013462B4405E0414603F8011B2B
:10276000591B072907D8072AF7D808A9114411F8D7
:10277000141C0132F2E72046C847064600283ED125
:102780000137BFB2642F38D00B2205A92846D047A5
:10279000052FD9D93B465946DA0342EA530331F8AB
:1027A000022B12FA83F39BB20A88002AF4D10DF1AE
:1027B0001306072203F00F0000F13001392988BF0A
:1027C00000F13701013A06F80119C3F30F13002B8A
:1027D000F0D17E2108AB134403F8141C002AB5D0B5
:1027E0002B78202BB4D02946002301339A42B1D054
:1027F00011F8010F2028F8D1ADE7072604E0642F77
:1028000000F0AC80042803D0304609B0BDE8F08F5A
:102810009DF81F30EB72C4F81CB09DF81F3013F008
:10282000020F14D0BBF800307BB1002301339BB200
:102830003BF81320002AF9D11933614F87FB032796
:10284000DB17C3EBA707BFB202E00023F4E70127C1
:10285000002120465B4B984706460028D4D14FF014
:10286000000A5546DFF86481D346DFF85C910AE040
:102870006B1C9BB29F4273D01D4601212046C84766
:1028800006460028C0D121692068C04706460028B6
:10289000BAD163691B78E52B00D023B9002DE7D1AD
:1028A000B4F806A0E4E75D46E7E7714670E04FF64E
:1028B000FF72934202D039F811300BB94BF0400B44
:1028C00080F800B0236801221A71394620463E4B39
:1028D00098470646002897D1013DADB215B321694E
:1028E00020683A4B9847064600288DD1D4F81C90B2
:1028F00060695FFA85FB9DF8003043730F23C37254
:1029000007738776C7760BF1FF3101EB410301EBCB
:1029100083012F4A02F10D08019B4FF6FF764FF01D
:10292000FF0A38E021692068284B984706460028AE
:102930007FF46AAF6569202200212846254B98471D
:102940000B22A16928461D4B9847A369DB7A03F047
:1029500018032B73236801221A7155E7072653E7E2
:10296000012BDFD951462046164B984706460028D2
:102970007FF44AAFA069184B984700900027019751
:10298000ADE792F800E000F80EA086448EF801A0B2
:10299000013242458BD0B342F3D001F1010E39F838
:1029A00011301178435401444FEA132C81F801C0CF
:1029B000002B7FF47AAF71463346E9E7D519400022
:1029C0004FECC44E1121400025244000991F4000C7
:1029D00078064100E91940000F1A40005D254000CB
:1029E0002DE9F84F04464FF0FF094E4604253F4FAE
:1029F0004FF6FF7857E00F2945D113F0400F0BD069
:102A000090F80D9003F0BF03E288228490F80DE067
:102A1000CE4505D0FF2640E09E42F7D0FF263CE0A1
:102A2000D4F81CA0067806F03F06013E06EB4602ED
:102A300006EB82062E4901F10D094FF0010C03E06F
:102A4000424549D1894511D011F8015B421992F8EC
:102A500001B0425D42EA0B22BCF1000FF0D0FE2E25
:102A60003AD82AF8162094460136EBE7027812F09D
:102A7000400F04D0FE2E2FD800222AF81620013B4A
:102A8000DEB2F14609E01EB91A4B9847814529D0BC
:102A90004FF6FF73238425E0FF2600212046164BC6
:102AA00098470546E0B92169A1B12068B8470546B5
:102AB000B0B96069037893B1E52BEDD02E2BEBD044
:102AC000C27A02F03F0112F0080F94D00F2992D081
:102AD000FF26E2E735B103E0F146FF26DDE70425F6
:102AE000002323612846BDE8F88F00BF991F4000EE
:102AF000780641000F1A40002524400070B50446B6
:102B000000212D4B9847034650B92378032B09D059
:102B1000002211466078294B9847031C18BF0123F7
:102B2000184670BD6379002BF2D00026E66204F1EE
:102B300030054FF4007231462846214B9847552303
:102B400084F82E32AA2384F82F32522384F83030AE
:102B500084F83130612384F83230412284F8332004
:102B6000722184F8141284F8151284F8162284F85D
:102B70001732236984F81832C3F3072284F8192224
:102B80001A0C84F81A221B0E84F81B32E36884F8AE
:102B90001C32C3F3072284F81D221A0C84F81E226B
:102BA0001B0E84F81F320123626929466078054DA7
:102BB000A8476671ACE700BF991F40000D1940009F
:102BC000E91940009D1840002DE9F04F83B082467E
:102BD0000D460B782F2B0AD05C2B08D00023CAF8A7
:102BE00008302B781F2B04D9DFF8FCB230E1013517
:102BF000F4E700215046B64B984703460022CAF836
:102C000014205AE1002B40F0528127F8022F631C58
:102C100016F8010F2F2818BF1F281BD95C2819D0C0
:102C2000B3F5807F00F043811C464146D8470246F9
:102C3000002800F03C817F28E7D8222800F03C8162
:102C40002A23A44998B29042DCD011F8013F002B0E
:102C5000F8D1DAE71D44202834BF04260026002CD2
:102C600000F02A816FF00043234409EB430239F856
:102C70001330202B01D02E2B08D1013C00F01C81F9
:102C800032F8023D202BF8D02E2BF6D0670000231F
:102C900029F814300B222021DAF818008E4B9847BF
:102CA000B9F80030202B01D02E2B1FD1494600232C
:102CB000013331F8022F202AFAD02E2AF8D00BB196
:102CC00046F00306023F09EB070239F807102E29E8
:102CD00005D0013C03D032F8021D2E29F9D108227B
:102CE00000924FF00008CDF8048004E00023E9E7EB
:102CF00046F003063B465F1C39F81300002866D0F7
:102D00002028F5D02E2801D1A742F1D1009B98456B
:102D100018D2A74216D07F2831D82B283DD02C239B
:102D20006E499AB2824243D011F8013F002BF8D18C
:102D3000A0F141039BB2192B3DD8019B43F0020344
:102D400001932DE0009B0B2B0FD0A74218BF46F03C
:102D50000306A7423BD8019B9B00DBB201932346AD
:102D60000B2200924FF00808C5E746F00306DAF898
:102D700018301A78E52A32D105221A702CE0002189
:102D8000D8470346002800F09F80554A134413F8A3
:102D9000800C46F002060028BFD146F003065F20F3
:102DA000DAF8183003F808003B4608F10108A2E7FA
:102DB000002BF2D1BCE7A0F161039BB2192BEFD835
:102DC000019B43F001030193203880B2E8E7DAF871
:102DD00018301A78E52ACFD0009B082B52D0019AE0
:102DE00002F00C030C2B54D002F00302032A50D043
:102DF00016F0020F0BD1019A02F00309B9F1010F8D
:102E000008BF46F01006042B08BF46F00806DAF8A3
:102E10001830DE725046334B9847DAF81830DA7AB9
:102E20000346002838D112F0040F46D1DAF81430E6
:102E3000DA7A12F0100F38D0597D1A7D42EA012259
:102E4000D97E9B7E43EA012343EA0243CAF8083055
:102E50002B782F2B01D05C2B05D115F8013F2F2BA0
:102E6000FBD05C2BF9D0DAF81C9028782F2818BFFB
:102E70001F281ED95C281CD0A9F102072E46012468
:102E8000A046D2E6019B4FEA83095FFA89F30193DA
:102E9000A5E746F00206ABE704280ED102F00402D3
:102EA000002A14BF0346052307E0052305E0062397
:102EB00003E001351F2804D80623184603B0BDE8F7
:102EC000F08F00242646CAE646F0020665E700BFFA
:102ED0001121400009074100E91940001507410090
:102EE000880641005D254000E9334000072801D9EC
:102EF0000B207047064B53F820300BB100221A709C
:102F000009B100230B70024B43F8201000207047DA
:102F10005C0A40202DE9F041ADF50E7D054601919A
:102F200016460023036002F01F0702F01E0285A967
:102F300001A8584B984782AB8B9302AB8C9368B136
:102F400003468A9C16F01C0F58D1002B40F0968047
:102F5000E37A13F0100F62D004238FE0019985A863
:102F60004D4B984703468A9C34B928B916F01C0F7C
:102F700040F08980062346E016F01C0FE5D0002BB8
:102F80003CD1E37A13F0110F7FD116F0040F7ED1FC
:102F900017F0080F50D0414B9847A073C0F3072398
:102FA000E373030C2374000E60740023E372237731
:102FB0006377A377E377627D267D46EA0226E17E8A
:102FC000A27E42EA0122A376E37623756375859893
:102FD0000123037152EA06462CD0D0F82C803146EA
:102FE0002F4B98470346002848D18598013EC6607C
:102FF00041462C4B98470346E0B13FE0042B04D0F8
:1030000047F008078A9CDBB138E085A8264B984733
:1030100047F008078A9C03460028B9D02EE016F036
:10302000020F04D013F0010F01D0072326E016F0A1
:10303000080F01D047F02007859BDB6AEB612C620B
:10304000AF71627D237D43EA0222E17EA37E43EAE3
:10305000012343EA02432B61E27FA37F1B0443EA7F
:103060000263227F1343627F43EA0223EB60002363
:10307000AB60AB61859A2A60D288AA8018460DF5AC
:103080000E7DBDE8F0810623BAE70723F6E70823A3
:10309000F4E700BFF11A4000C92B40007D19400041
:1030A000A9234000991F4000052740002DE9F04F5B
:1030B00083B004468946154698460023C8F8003078
:1030C00081880068584B98470190002840F0A880FC
:1030D000A37913F0800F40F0A18013F0010F02D10B
:1030E000072301939CE0E668A368F61AAE4228BF66
:1030F0002E46002E4CD193E061694C4B984757E027
:10310000A37963F07F03A3710223019388E0A3797D
:1031100063F07F03A3710123019381E0A37963F03E
:103120007F03A371022301937AE0A37963F07F0305
:10313000A3710123019373E04FF40072303109EB66
:1031400040203B4B98475FE0A561A568C5F30805A3
:10315000C5F50075B54228BF3546A1692068354BD5
:103160009847002853D1A168C1F308013031236882
:103170002A46194448462E4B9847A944A3682B4435
:10318000A360D8F800302B44C8F80030761B47D035
:10319000A268C2F30803002BD7D120688378013BD3
:1031A00003EA522313F0FF0708D1002AA4D12069B3
:1031B0000128A5D9B0F1FF3FA9D06061D4F800A0E3
:1031C000616950461C4B984705460028A6D03D44EF
:1031D0005FEA562BB8D09AF8023007EB0B029A42FE
:1031E00088BFA3EB070B5FFA8BF32A4649469AF890
:1031F0000100124FB847002897D121680B791BB105
:10320000C86A401B834597D84FEA4B25B5E7A37999
:1032100063F07F03A3710123019301E00223019373
:10322000019803B0BDE8F08F2D1A4000292040001E
:10323000D5194000991F4000F71940002D18400093
:1032400038B50446818800681F4B9847034618B973
:10325000A27912F0200F01D1184638BDE16920682B
:103260001A4B984703460028F6D1256AEB7A43F0BB
:103270002003EB72E3682B77A3891B0A6B77E38942
:10328000AB77E37BEB772369AB76238A1B0AEB767C
:10329000638A2B75638A1B0A6B750D4B9847A8755B
:1032A000C0F30723EB75030C2B76000E6876A37929
:1032B00023F02003A371236801221A712068054BB3
:1032C00098470346C8E700BF2D1A4000991F4000E9
:1032D0007D194000FD2A400010B50446034B984775
:1032E000034608B900222260184610BD4132400052
:1032F00010B5ADF5067D044601910022014601A8F6
:10330000184B9847034618B118460DF5067D10BDB9
:1033100083ABA36103ABE36101992046124B98474D
:103320000346C0B9636973B1DA7A12F0100F16D090
:10333000597D1A7D42EA0122D97E9B7E43EA012310
:1033400043EA0243A3602368DB88A3800021204670
:10335000064B98470346042B08BF0523D4E70523F3
:10336000D2E700BFF11A4000C92B400011214000F4
:1033700070B5ADF5047D04460E4681880068154B96
:103380009847054658B976B181ABA36101ABE361BB
:103390002046114B984704280BD060B105462846BB
:1033A0000DF5047D70BD002120460C4B9847054665
:1033B000F5E70023236131462046094B9847002159
:1033C0002046084B9847042801D00546E7E700232C
:1033D0002361E4E72D1A4000E1294000112140005B
:1033E000611E4000252440007F2819D971B9C728E3
:1033F00013D00C4A012332F8021F814203D001335B
:103400009BB2802BF7D18033D8B27047FF2806D803
:103410008038044B33F8100070470023F3E7002096
:10342000704700BF1C07410061280ED008490022E8
:10343000013231F8023F834201D0002BF8D11BB199
:10344000044B33F81200704770470022F8E700BFC2
:103450001C084100FC09410000F1080343604FF0E3
:10346000FF328260C3600361002303607047002362
:103470000361704743684B609A688A609A6851603C
:1034800099600861036801330360704730B40D68C8
:10349000B5F1FF3F02D000F1080202E0026904E04A
:1034A0001A4653681C68A542FAD253684B6099606B
:1034B0008A605160086103680133036030BC704763
:1034C00003694268816891608268416851605A6806
:1034D000904205D0002202611868013818607047D8
:1034E00082685A60F6E700000D4B1B68B3F1FF3F9E
:1034F0000AD04FF0800372B683F31188BFF36F8F49
:10350000BFF34F8F62B6FEE74FF0800372B683F3CE
:103510001188BFF36F8FBFF34F8F62B6FEE700BF16
:103520003000402006480068006880F3088862B6D2
:1035300061B6BFF34F8FBFF36F8F00DF00BF000096
:1035400008ED00E0DFF80C00016841F47001016053
:103550007047000088ED00E04FF0807340F8043CB5
:1035600040F8081C054B40F80C3C40F8202C6FF04C
:10357000020340F8243C4438704700BFE93440005F
:10358000064B19680868B0E8F04F80F30988BFF36C
:103590006F8F4FF0000080F3118870478CC240207D
:1035A000704700BF4FF0800372B683F31188BFF3FA
:1035B0006F8FBFF34F8F62B60B4A136801331360EE
:1035C000012B0FD1094B1B6813F0FF0F0AD04FF0EE
:1035D000800372B683F31188BFF36F8FBFF34F8FF1
:1035E00062B6FEE7704700BF3000402004ED00E007
:1035F0000A4B1B6853B94FF0800372B683F31188EE
:10360000BFF36F8FBFF34F8F62B6FEE7013B034AF4
:1036100013600BB983F31188704700BF300040205E
:10362000EFF30980BFF36F8F154B1A681EF0100F70
:1036300008BF20ED108A20E9F04F10604DF8043DDE
:103640004FF0800072B680F31188BFF34F8FBFF345
:103650006F8F62B601F0AAF84FF0000080F3118876
:1036600008BC19680868B0E8F04F1EF0100F08BFDA
:10367000B0EC108A80F30988BFF36F8F704700BFEA
:103680008CC24020704700BF08B5EFF311834FF0A4
:10369000800272B682F31188BFF36F8FBFF34F8F32
:1036A00062B6054B984718B14FF08052034B1A6031
:1036B000002383F3118808BD1944400004ED00E0A5
:1036C000034A044B1A600722043B1A60704700BF8C
:1036D000BF27090014E000E000B583B0254B1A783D
:1036E000D2B20192FF221A701B78DBB28DF8033040
:1036F0009DF8033003F080031F4A137007221F4B0D
:103700001A609DF8033013F0800F10D0062200E0FD
:103710000A469DF803305B00DBB28DF803309DF85C
:103720000330511E13F0800FF2D1144B1A60134A6C
:1037300013681B0203F4E0631360019BDBB20D4AC4
:1037400013700F4B1A6842F460021A601A6842F054
:1037500060421A600B4B984700220B4B1A600B4BD0
:1037600098470B4A136843F040431360094B98474E
:10377000094B984700E400E07E0A4020800A402080
:1037800020ED00E0C13640003000402045354000CB
:1037900034EF00E025354000E9344000EFF30583C5
:1037A0000F2B11D9124A9B5CDBB2124A12789A4253
:1037B0000AD94FF0800372B683F31188BFF36F8F7D
:1037C000BFF34F8F62B6FEE70B4B1B6803F4E06359
:1037D0000A4A126893420AD94FF0800372B683F303
:1037E0001188BFF36F8FBFF34F8F62B6FEE770474C
:1037F000F0E300E07E0A40200CED00E0800A40206B
:1038000038B5044610F0070F02D020F00704083442
:10381000114B9847114B1B6893B1114B1B681C440B
:10382000A34213D24BF2F77294420FD80B4A156899
:103830001D440B4B1C600B4B98474DB1284638BDBF
:10384000094B23F00703054A1360E6E7054B984749
:10385000064B98470025F1E7FD434000840A4020CD
:1038600088C2402065454000900A402053904000A7
:1038700050B14FF0800372B683F31188BFF36F8F9E
:10388000BFF34F8F62B6FEE77047000038B50446BD
:103890001546026C5AB90368002B2ED140681B4BA9
:1038A000984700236360A36B0133A36338BD6DB9F0
:1038B0008068174B9847A368226C1344A360626822
:1038C00093421CD32368A3600020ECE7C068104B30
:1038D0009847236C5B42E2681A44E26021688A429E
:1038E00002D262681344E360022D0AD1A36B53B184
:1038F000A36B013BA3630020D5E70020D3E70020A2
:10390000D1E70020CFE70020CDE700BFAD4B40005E
:10391000F996400030B583B00190446D74B1A26B4C
:10392000E36B9A4215D34FF0800372B683F311888C
:10393000BFF36F8FBFF34F8F62B6FEE74FF0800388
:1039400072B683F31188BFF36F8FBFF34F8F62B6E8
:10395000FEE7A26B934203D80025284603B030BD92
:103960000A4601A920460B4B98470546A36CB3F1C4
:10397000FF3F0AD1636A002BEFD004F12400064B0D
:103980009847002818BF0125E7E7A36C0133A3641B
:10399000E3E700BF8D38400081494000026C72B1FE
:1039A00010B50346C4681444C4604068844201D31F
:1039B0001868D8600846D968014B984710BD704711
:1039C000F9964000F8B50446224B9847A36C002BAB
:1039D0001BDD214D214F224E0BE0636AABB104F198
:1039E0002400B04778B9A36C013BA364A36C002BFF
:1039F0000BDD636D002BF0D000212046A847012885
:103A0000F1D1B847EFE7B847EDE74FF0FF33A364D4
:103A1000144B98470F4B9847636C002B14DD2369B8
:103A200093B104F110060E4D0C4F07E0636C013B9F
:103A30006364636C002B07DD23692BB13046A84714
:103A40000028F3D0B847F1E74FF0FF336364054B2C
:103A50009847F8BDA535400015394000DD4A4000C3
:103A600081494000F135400038B508B304460D46A1
:103A70001D4B98472268216CE36B03FB01F3D018C0
:103A800060600020A063A2605B1A1344E3604FF003
:103A9000FF336364A364FDB923692BB104F1100003
:103AA000124B984701280ED0114B9847012038BD82
:103AB0004FF0800372B683F31188BFF36F8FBFF3AB
:103AC0004F8F62B6FEE74FF080520A4B1A60BFF389
:103AD0004F8FBFF36F8FE7E704F11000064DA84743
:103AE00004F12400A847DFE7A535400081494000E4
:103AF000F135400004ED00E059344000F8B550B90C
:103B00004FF0800372B683F31188BFF36F8FBFF35A
:103B10004F8F62B6FEE7064617460D4689B101FB98
:103B200000F05930124B98470446E8B94FF0800333
:103B300072B683F31188BFF36F8FBFF34F8F62B6F6
:103B4000FEE758200A4B984704460028EED0206034
:103B5000E663256401212046064B984784F850709F
:103B6000002363652046F8BD00F158030360EFE7CA
:103B700001384000693A40002DE9F04F85B00192CC
:103B8000B8B1044601B3022B2CD01D468846664BC3
:103B90009847002834D1019B002B38D04FF0800388
:103BA00072B683F31188BFF36F8FBFF34F8F62B686
:103BB000FEE74FF0800372B683F31188BFF36F8F77
:103BC000BFF34F8F62B6FEE7026C002ADBD04FF0E6
:103BD000800372B683F31188BFF36F8FBFF34F8FEB
:103BE00062B6FEE7E26B012ACFD04FF0800372B6D7
:103BF00083F31188BFF36F8FBFF34F8F62B6FEE779
:103C000000274A4EDFF850A1DFF82C9142E0002750
:103C1000F7E72A4641462046454B9847636D9BB1DE
:103C200029462046434B9847012807D14FF0805240
:103C3000414B1A60BFF34F8FBFF36F8F3F4B9847D5
:103C4000012005B0BDE8F08F636A73B104F1240070
:103C50003B4B98470128F1D14FF08052364B1A6008
:103C6000BFF34F8FBFF36F8FE8E70028E6D04FF028
:103C70008052314B1A60BFF34F8FBFF36F8FDDE778
:103C80002E4B98470020DCE720462E4B98472E4BC2
:103C900098470127B047A26BE36B9A42B9D3022D34
:103CA000B7D0019B002BEBD00FB902A8D047234B14
:103CB0009847264B9847B047636CB3F1FF3F01D15B
:103CC00000236364A36CB3F1FF3F01D10023A3641D
:103CD0001A4B984701A902A81D4B9847E0B9B04775
:103CE000D4F838B0E76B154B9847BB45CCD1019958
:103CF00004F11000174B98472046124B9847124B7F
:103D000098470028C5D14FF08053C9F80030BFF361
:103D10004F8FBFF36F8FBCE720460A4B98470A4B83
:103D2000984700208DE700BFE94A4000A5354000D4
:103D30008D3840001539400004ED00E0F1354000B9
:103D400081494000C539400065454000FD434000C1
:103D5000494A40007D484000194A4000002836D0BA
:103D60002DE9F041044600293CD0022B48D01E46E4
:103D700015468846354B9847EFF311874FF080037F
:103D800072B683F31188BFF36F8FBFF34F8F62B6A4
:103D9000A26BE36B9A4201D3022E4FD132464146C9
:103DA00020462B4B9847A36CB3F1FF3F41D1636D85
:103DB000002B33D031462046264B9847002D3FD06C
:103DC00001283DD1286087F31188BDE8F0814FF0CC
:103DD000800372B683F31188BFF36F8FBFF34F8FE9
:103DE00062B6FEE7006C0028BFD04FF0800372B6C9
:103DF00083F31188BFF36F8FBFF34F8F62B6FEE777
:103E0000E06B0128B3D04FF0800372B683F31188C2
:103E1000BFF36F8FBFF34F8F62B6FEE7636A8BB15C
:103E200004F124000C4B984775B168B1012028605B
:103E3000C9E7A36C0133A3640120C4E70020C2E7F3
:103E40000120C0E70120BEE70120BCE79D3740000C
:103E50008D38400015394000814940002DE9F04778
:103E600084B0019298B10446E1B198460F46614B87
:103E7000984728BB019B53B34FF0800372B683F37E
:103E80001188BFF36F8FBFF34F8F62B6FEE74FF01D
:103E9000800372B683F31188BFF36F8FBFF34F8F28
:103EA00062B6FEE7026C002ADFD04FF0800372B6E4
:103EB00083F31188BFF36F8FBFF34F8F62B6FEE7B6
:103EC00000264D4DDFF860A1DFF83C914BE0002665
:103ED000F7E7E56839462046484B9847B8F1000FA8
:103EE0001DD1A36B013BA363236813B9444B9847CF
:103EF000606023696BB104F11000424B98470128C0
:103F000007D14FF08052404B1A60BFF34F8FBFF381
:103F10006F8F3E4B9847012004B0BDE8F087E56005
:103F2000636A002BF5D004F12400364B9847002833
:103F3000EFD04FF08052344B1A60BFF34F8FBFF376
:103F40006F8FE6E7314B98470020E5E7A8476068A8
:103F50002F4B98472D4B984730E020462D4B9847E4
:103F60002D4B98470126A847A36B002BB1D1019B8D
:103F7000002BE7D00EB902A8D047244B9847274B17
:103F80009847A847636CB3F1FF3F01D100236364F6
:103F9000A36CB3F1FF3F01D10023A3641B4B9847EF
:103FA00001A902A81E4B9847E8B9A847A66B174B72
:103FB0009847002ED1D12368002BC7D0019904F176
:103FC0002400184B98472046124B9847124B9847AD
:103FD0000028C7D14FF08053C9F80030BFF34F8F8E
:103FE000BFF36F8FBEE720460A4B98470A4B9847AE
:103FF000002091E7E94A4000A53540009D39400086
:10400000694C40008149400004ED00E0F13540007A
:10401000094B4000C539400065454000FD43400064
:10402000494A40007D484000194A400010B40B4BFB
:104030001B6853B10123094C54F8332032B10133CA
:10404000082BF9D15DF8044B70470023034A42F86E
:10405000331002EBC3035860F4E700BF54CA40209A
:1040600070B504460D4616460F4B9847636CB3F186
:10407000FF3F0BD0A36CB3F1FF3F0AD00B4B984727
:10408000A36B4BB120460A4B984770BD0023636475
:10409000F0E70023A364F1E73246294604F1240047
:1040A000044B9847EEE700BFA5354000F1354000CE
:1040B000C539400001494000084B1B681B683BB1F3
:1040C000064B1B68DB68DB685A68054B1A60704753
:1040D0004FF0FF32024B1A60704700BF90C2402081
:1040E0003CC3402010B50F4B1B6858600E4B1B683B
:1040F00098420ED304460D4B18680A4B19680431D8
:104100000B4B98470B4B1B689C4201D2094B1C6020
:1041100010BD094B1868034B19680431044B9847CC
:1041200010BD00BF8CC2402084C3402090C24020FC
:104130008D3440003CC3402094C240202DE9F04F14
:1041400083B00C9DDDF834A00E9E60B1042D15D90E
:104150004FF0800372B683F31188BFF36F8FBFF304
:104160004F8F62B6FEE74FF0800372B683F311887B
:10417000BFF36F8FBFF34F8F62B6FEE70190984693
:1041800091460F4636B99000624B98470646002884
:1041900000F09E8058205F4B98470446002800F0AE
:1041A000948006634FEA8902A52130465A4B98470E
:1041B0006FF040464E44236B03EB860323F0070663
:1041C0003B7884F834303B78002B40F08480002723
:1041D00084F83D70E562A564E76404F1040948468B
:1041E000DFF884B1D84704F11800D8472461C5F13D
:1041F0000503A3616462276584F8547042460199FF
:104200003046464B98472060BAF1000F01D0CAF8FB
:104210000040434B9847434A136801331360424BB5
:104220001B68002B66D1404B1C601368012B21D109
:104230003E4F38463E4EB04707F11400B04707F1F5
:104240002800B04707F13C00B04707F15000B047E5
:10425000DFF818814046B047364F3846B0473648F9
:10426000B0473648B0473648B047364BC3F80080B1
:10427000354B1F60354A1368013313602364E06ACD
:10428000334A1168012383400B43136000EB800025
:104290004946264B03EB80002E4B98472E4B984700
:1042A0002E4B1B68002B31D01F4B1B68DB6A9D42D5
:1042B0002ED94FF080522A4B1A60BFF34F8FBFF3B5
:1042C0006F8F012003B0BDE8F08F3046254B984733
:1042D0004FF0FF30F6E73B4604F1340209375978D6
:1042E00002F8011F13F8011F00293FF470AFBB4211
:1042F000F5D16CE7194B1B68002BBBD10A4B1B682F
:10430000DB6A9D42B6D3084B1C60B3E70120D9E7B6
:104310000120D7E7013840002D9840005935400072
:10432000A5354000FCC240208CC2402098C24020ED
:104330005934400028C3402044C3402070C340206B
:104340005CC3402090C2402094C2402008C340205B
:1043500010C3402075344000F135400058C3402060
:1043600004ED00E0713840006F34400014C3402079
:1043700010B584B00023039302930193009382222B
:1043800016491748174CA04701280BD020BB4FF007
:10439000800372B683F31188BFF36F8FBFF34F8F23
:1043A00062B6FEE7104B98470128EFD14FF080032B
:1043B00072B683F31188BFF36F8FBFF34F8F62B66E
:1043C0004FF0FF32094B1A600122094B1A6000229C
:1043D000084B1A60084B984704B010BDDC0B410035
:1043E000154740003D414000554D40003CC3402032
:1043F00058C3402084C34020D9364000024A136885
:1044000001331360704700BF04C34020014B18689C
:10441000704700BF84C340202DE9F047424B1B6822
:10442000002B78D1414B1A6801321A601E68D6B948
:104430003F4B1B681B6853B14FF0800372B683F388
:104440001188BFF36F8FBFF34F8F62B6FEE7384A14
:104450001168384B186810601960374A13680133C7
:104460001360364B9847364B1B689E4218D2002487
:10447000344B1B68DB6A03EB8303334A52F8233067
:10448000022B28BF0124314B1B680BB9304B9847D6
:10449000304B1B68002B0CBF20460120BDE8F08785
:1044A0000024DFF88C90DFF8B8802B4F1FE04FF02E
:1044B000FF32234B1A60DBE7214A1360D8E705F18E
:1044C0001800C047E86A3A680123834013433B6001
:1044D00000EB800051461C4B03EB80001F4B9847BC
:1044E000184B1B68EA6ADB6A9A4228BF0124D9F894
:1044F00000301B68002BDAD0D9F80030DB68DD68AB
:104500006B689E42D8D305F1040A5046C047AB6A97
:10451000002BD4D1D6E70D4A1368013313600C4B3E
:1045200098470024B4E700BF04C3402084C3402060
:1045300090C2402094C2402040C34020B940400077
:104540003CC340208CC2402098C2402000C3402081
:104550005190400088C3402010C340207534400073
:10456000C13440002DE9F843384B1B6853B94FF074
:10457000800372B683F31188BFF36F8FBFF34F8F41
:1045800062B6FEE7324B9847304B1A68013A1A6020
:104590001B68002B55D12F4B1B68002B32D10024F8
:1045A0002D4B98472046BDE8F883FB68DC6804F192
:1045B0001800B04704F104084046B047E06A2A6892
:1045C0000123834013432B6000EB8000414609EB3D
:1045D0008000224B9847224B1B68E26ADB6A9A42B2
:1045E0000CD23B68002BE0D11E4B1B68DBB11D4B8E
:1045F0001B68C3B11C4E1D4D1A4C0EE001221B4B13
:104600001A60EEE71A4F1B4E1B4DDFF87490E8E777
:104610002368013B236023682BB1B0470028F7D003
:1046200001232B60F4E7114B1B68012B0BD14FF0DA
:104630008052124B1A60BFF34F8FBFF36F8F01246C
:10464000AEE70024ACE70024AAE700BF04C3402083
:10465000A5354000FCC24020F135400075344000D3
:104660008CC2402000C340201944400088C3402031
:1046700044C34020C134400010C3402004ED00E09A
:1046800098C2402010B5002829D00446184B1B685A
:1046900053B14FF0800372B683F31188BFF36F8F6D
:1046A000BFF34F8F62B6FEE7124B9847124B1B6861
:1046B0001C44124B18680430114B984748B90F4BF3
:1046C0001A6810490B68D06A0122824023EA02036B
:1046D0000B6020460C4B98470C4B984738B94FF06D
:1046E00080520B4B1A60BFF34F8FBFF36F8F10BD1B
:1046F00004C34020FD43400084C340208CC24020BE
:10470000C134400010C34020E540400065454000F2
:1047100004ED00E080B5DFF88880194EDFF8849062
:104720002AE0184B1B68012B1ED82B68002BF8D0F1
:10473000C0473468B847002CF7D0134B9847F3684C
:10474000DC68201D114B9847114A1368013B136028
:104750002B68013B2B600F4B9847206BDFF848A07C
:10476000D0472046D047E0E74FF08053C9F80030EB
:10477000BFF34F8FBFF36F8F074D084FD5E700BFD3
:1047800070C3402098C24020A5354000C13440008D
:10479000FCC24020F13540000CC34020654540007C
:1047A000FD43400004ED00E0713840002D4B1B68D4
:1047B000002B2CD110B500222B4B1A602B4B1B6801
:1047C0001B6B1A68B2F1A53F03D15A68B2F1A53F3D
:1047D00021D0264B186819683431254B9847254B52
:1047E0001B68B3FA83F3DBB2C3F11F0303EB83014E
:1047F000214A52F82120BAB94FF0800372B683F3F0
:104800001188BFF36F8FBFF34F8F62B6FEE70122AF
:10481000154B1A6070479A68B2F1A53FD9D1DB6891
:10482000B3F1A53FD5D1DAE7134A9900C81802EBD6
:104830008000446864684460194402460832944227
:1048400009D003EB83030C4A02EB83035B68DA684D
:10485000064B1A6010BD6068074A02EB8102506087
:10486000EFE700BF04C3402088C340208CC2402033
:104870003990400010C3402098C2402038B5E0B1C4
:104880000C46174D29681831164B98472868043094
:10489000154B984740B92A6814490B68D06A012221
:1048A000824023EA02030B60B4F1FF3F10D0104BAB
:1048B000186820440F4B984738BD4FF0800372B6FC
:1048C00083F31188BFF36F8FBFF34F8F62B6FEE79C
:1048D000034B196804310848084B984738BD00BF9E
:1048E0008CC240208D344000C134400010C34020B1
:1048F00084C34020E54040005CC340207534400044
:10490000E8B170B515460C46164E31681831164B95
:10491000984730680430154B984740B932681449BD
:104920000B68D06A0122824023EA02030B60012D4A
:1049300010D0104B186820440F4B984770BD4FF0B3
:10494000800372B683F31188BFF36F8FBFF34F8F6D
:1049500062B6FEE7034B196804310848024B9847DA
:1049600070BD00BF8CC2402075344000C13440008F
:1049700010C3402084C34020E54040005CC3402079
:1049800038B5C368DC6824B304F1180528461A4B0F
:1049900098471A4B1B683BBB251D2846164B98476A
:1049A000E06A174A1168012383400B43136000EB50
:1049B00080002946134B03EB8000134B9847134BA1
:1049C0001B68E26ADB6A9A4213D90120104B186017
:1049D00038BD4FF0800372B683F31188BFF36F8F39
:1049E000BFF34F8F62B6FEE729460A48064B984749
:1049F000E5E7002038BD00BFC134400004C34020BB
:104A000010C3402098C24020753440008CC2402022
:104A100088C3402044C3402030B1094A1268026074
:104A2000084A1268426070474FF0800372B683F301
:104A30001188BFF36F8FBFF34F8F62B6FEE700BFE1
:104A400040C3402084C3402038B5C0B1044609B3F8
:104A50000D461D4B98471D4B1A682B68B3F1FF3F5D
:104A60002ED01B4909682068884202D061688A42BA
:104A700028D26168501A834217D801241CE04FF0F5
:104A8000800372B683F31188BFF36F8FBFF34F8F2C
:104A900062B6FEE74FF0800372B683F31188BFF36E
:104AA0006F8FBFF34F8F62B6FEE79B1A0B442B60EC
:104AB0002046084B98470024074B9847204638BDAE
:104AC0000024F9E70124F7E7A535400084C340201E
:104AD00040C34020194A4000F13540000122014BFB
:104AE0001A60704788C34020054B1B6833B1054BE3
:104AF0001B68002B0CBF022000207047012070476C
:104B000058C3402004C34020002844D038B5044690
:104B1000C26A21490968C96A8A4214D28169002996
:104B200005DB1D490968C96AC1F10501816102EB14
:104B300082021A4901EB82026169914204D0164A4D
:104B40001268D26AE26238BD251D2846144B984788
:104B500070B9E36A03EB8301104A52F821203AB995
:104B600010480268012101FA03F322EA03030360FB
:104B7000094B1B68D86AE0620A4A11680123834026
:104B80000B43136000EB80002946044B03EB8000CD
:104B9000054B984738BD70478CC2402098C24020D2
:104BA000C134400010C340207534400000284DD06F
:104BB00038B50446274A126890420AD04FF0800365
:104BC00072B683F31188BFF36F8FBFF34F8F62B656
:104BD000FEE7C26C52B94FF0800372B683F31188BE
:104BE000BFF36F8FBFF34F8F62B6FEE7013AC26427
:104BF000C06AA16C88422BD052BB251D2846164B9B
:104C0000984768B9E16A01EB8102144B53F82230EE
:104C100033B91348036801228A4023EA0203036080
:104C2000A06CE062C0F10503A3610D4A1168012484
:104C300004FA00F30B43136000EB80002946074B96
:104C400003EB8000074B9847204638BD0020704793
:104C5000002038BD8CC24020C134400098C24020A2
:104C600010C3402075344000054B1B6823B1044B32
:104C70001A68D36C0133D364014B1868704700BFC6
:104C80008CC2402008B54160006191420CD8D21A14
:104C900083699A4201D3012008BD011D094B1868A0
:104CA000094B9847002008BD9A4203D2994201D38C
:104CB000012008BD011D054B1868034B98470020D3
:104CC00008BD00BF90C340208D3440008CC34020FD
:104CD00070B5154B9847154B1B6813B1144B98478B
:104CE00070BD144D2846144EB047144C2046B047B2
:104CF000134B1D60134B1C60002210210520124B2A
:104D000098470A4B186018B11049114B9847E5E7CE
:104D10004FF0800372B683F31188BFF36F8FBFF338
:104D20004F8F62B6FEE700BFA5354000C0C34020EC
:104D3000F135400094C3402059344000A8C34020BE
:104D40008CC3402090C34020FD3A4000E40B41005A
:104D50002D40400010B584B00F4B98470F4B1B6897
:104D600073B10023039302930193042200924FF442
:104D700082720B490B480C4CA04708B104B010BD1F
:104D80004FF0800372B683F31188BFF36F8FBFF3C8
:104D90004F8F62B6FEE700BFD14C4000C0C3402039
:104DA000EC0B4100D54E40003D414000D8B130B53C
:104DB00085B015460446154A106820B31A4600917E
:104DC00001950294052919DC114B984702284FF0F0
:104DD00000030CBF089A1A4669460C4800680D4C3F
:104DE000A04705B030BD4FF0800372B683F3118841
:104DF000BFF36F8FBFF34F8F62B6FEE700236946A4
:104E0000054CA047EDE70020EBE700BFC0C3402002
:104E1000E94A4000793B40005D3D40002DE9F04704
:104E200082B08046244B98470746244B1B68984223
:104E30001BD30023C8F80030204B1F60384602B057
:104E4000BDE8F087002100910B46524620461C4CDD
:104E5000A04760B94FF0800372B683F31188BFF3A7
:104E60006F8FBFF34F8F62B6FEE7164D164E2B685D
:104E70001A68C2B1DB68D3F800A0DC6804F1040949
:104E80004846B047636A20469847E369012BEED154
:104E9000A36953449A45D5D2636024614946286882
:104EA0000A4B9847E3E70A4A10680649086013600E
:104EB0000123C8F80030BFE70D444000BCC34020C8
:104EC000AD4D40008CC34020C13440008D344000C3
:104ED00090C340202DE9F04788B0754E754FDFF83C
:104EE000FC91DFF8FC8133681A68002A00F0CE805C
:104EF000DB681C68B84704A86F4B98470546049BBD
:104F0000002B44D1A04212D20022611B6B4B1868C7
:104F10006B4B98476B4B984700283AD14FF0805322
:104F2000C9F80030BFF34F8FBFF36F8F31E0654B8F
:104F300098473368DB68D3F80CA00AF10400C04737
:104F4000DAF81C30012B04D0DAF8243050469847A8
:104F50001FE0DAF8181023462A46214450465A4DDD
:104F6000A8470128F0D1002100910B462246504667
:104F7000564CA0470028E7D14FF0800372B683F368
:104F80001188BFF36F8FBFF34F8F62B6FEE74D4BB3
:104F900098474A4D4E4C06E007990698059B98475E
:104FA000049B002B09DA00231A4604A92868A047AD
:104FB000002898D0049B002BEEDBDDF818A0DAF86F
:104FC000143013B10AF10400C04703A83A4B9847C4
:104FD000049B092BE7D801A252F823F005504000AA
:104FE0000550400005504000A74F40005950400078
:104FF000855040000550400005504000A74F40003C
:1050000059504000059CDAF8181023460246214406
:1050100050462D4CA0470128BCD1DAF82430504628
:105020009847DAF81C30012BB4D1DAF818200021A7
:1050300000910B46059802445046244CA047002896
:10504000A8D14FF0800372B683F31188BFF36F8F3E
:10505000BFF34F8F62B6FEE70599CAF8181031B159
:105060000346024601445046174CA04792E74FF0D2
:10507000800372B683F31188BFF36F8FBFF34F8F36
:1050800062B6FEE75046134B984783E7B84704A83B
:10509000094B98470546049B002B7FF478AF0E4BD5
:1050A0001B681A68B2FA82F2520900242DE700BF89
:1050B0008CC34020FD4340001D4E4000C0C3402033
:1050C0006140400065454000854C4000AD4D4000CA
:1050D0005D3E40007138400090C3402004ED00E088
:1050E000C1344000102808D1B1F1805F05D108B566
:1050F000024B1B6803B1984708BD7047C4C34020EA
:1051000050B170B5441E054E054D3046A847013CD0
:10511000B4F1FF3FF9D170BD704700BF35160300F1
:10512000010040202DE9F041094F4FF40038C7F845
:105130003480084D08266E636420074CA047C7F8EA
:1051400030806420A0472E636420A047BDE8F08132
:1051500000120E4000100E400151400010B5002218
:10516000144B1A600A20144CA0470B20A0470C20B7
:10517000A0471020A0471120A047104B08221A6119
:10518000C3F8A0201A630E4A4FF400311161C2F82F
:10519000A010116304221A61C3F8A0201A63094BFE
:1051A0001B6813F0010F01D0064B1B68064B984794
:1051B000002010BDC4C340202186400000100E40D6
:1051C00000120E4010E000E02551400030B583B0E1
:1051D000144B18601020144B98474FF020517C203E
:1051E000124B9847124C01224FF080512046114B30
:1051F0009847114B009351234FF0805210212046C5
:105200000E4DA8474FF0805120460D4B98474FF464
:1052100080320C4B1A600022102120460A4B98471E
:1052200003B030BDC4C34020218640002982400025
:1052300000140E40ED804000E5504000A98340007E
:105240001982400000E100E07D84400008B528B9E3
:105250004FF080510448054B984708BD4FF08051EE
:105260000148034B984708BD00140E401D824000C2
:1052700019824000F8B5394C4FF480112166C4F80A
:10528000901061656162C4F88010236F0B4323673F
:10529000636F23F4801363674FF400122266C4F82F
:1052A000902062656262C4F88020236F13432367F5
:1052B000636F23F4001363674FF480032366C4F81D
:1052C000903063656362C4F88030206F18432067B4
:1052D000606F20F4800060676160626063604FF01F
:1052E000007666602660266126631D4D28461D4BAC
:1052F000984702232B6080232B606B6843F00103E7
:105300006B606B6843F010036B6001212846164BFD
:105310009847002201212846144B98470122114644
:105320002846134B9847002201212846114B9847E5
:1053300011491248124B9847C2B201212846114B1D
:10534000984700231A46012128460F4FB8470123EA
:105350002B6026630D4B98470020F8BD00140E40CB
:105360000080004075864000A18640001B874000F9
:10537000398740005787400000A3E111006CDC0230
:105380006B87400081874000A9874000255140007D
:105390002DE9F04F83B0032844D10E684D680C8985
:1053A00000238DF80430ADF8063086B1002D36D1DB
:1053B0004FF00108994601AD4FF00072204B5A633F
:1053C0002CB3204FDFF894B0DFF894A006E04FF044
:1053D00000084FF0010901AEEEE7C4B100231A4600
:1053E00031783846D8470DF105020DF106013846EF
:1053F000D047BDF806302B70013CA4B2B8F1000FC5
:1054000000D10135B9F1000FE7D10136E5E74FF0E2
:1054100000720B4B1A63002003B0BDE8F08F6FF0F1
:105420000500F9E740F21F1207490848084CA04759
:105430000848A0470848A0474FF0FF30ECE700BFFE
:1054400000140E4000800040F40B4100040C4100A9
:10545000D1964000180C4100E8184100E786400052
:10546000B786400002220E4B1A6003F5592303F55C
:1054700080634FF400125A61C3F8A0204FF48012E9
:105480005A61C3F8A0204FF480025A61C3F8A020EB
:105490004FF000725A61C3F8A0200020704700BF8F
:1054A000008000403AB10139821811F8013F00F83C
:1054B000013B9042F9D1704722B1821800F8011BDC
:1054C0009042FBD17047037843B1002301339BB274
:1054D00010F8012F002AF9D1184670470023FBE786
:1054E000024A13780133DBB213707047CBC34020FC
:1054F0007047000000B583B001200B4B984701A90D
:1055000041F27000094B9847034618B1184603B0A2
:105510005DF804FB019941F00201019141F2700034
:10552000034B98470346F1E74D5240001168400095
:105530001D68400008B5124B1B784BB9114B1B7806
:10554000DBB2032B0CD00F4B1B78DBB2042B07D044
:105550000B4A13780133DBB213700023184608BDE1
:10556000094B984703460028F8D145F2786141F28B
:105570007400064B984703460028E9D0EEE700BFC9
:10558000C9C34020C8C34020816340001D6840005B
:105590001E4B1B7823B11D4A1378013BDBB21370FD
:1055A0001A4B1B78002B2ED1194B1B78DBB2032B27
:1055B00006D0174B1B78DBB2042B01D0002323E06D
:1055C00000B583B00023019344F2213141F274000D
:1055D000104B9847034618B1184603B05DF804FB1A
:1055E00001A901200C4B984703460028F4D10199EA
:1055F00011F0020FF0D021F0020101910120054BC2
:1056000098470346E8E7002318467047C9C340207F
:10561000C8C340201D684000116840002DE9F04FCC
:1056200087B00746884692469946109CBDF844606C
:10563000BDF8485001F07F038DF815308DF8140047
:105640000823ADF81630002C00F09F80BDF816300E
:1056500016FA83F32B449BB2ADF816305C4B984797
:105660008346002840F0A28000230393ADF8063063
:105670000293029B1F430297029B43EA0823029373
:10568000BDF81620029B43EA02430293029941F2BD
:105690008C00504B98478346002840F091800023AF
:1056A0000293029B43F002030293029941F27800B5
:1056B000484B98478346002840F08280002303939C
:1056C000ADF80630BDF806309BB2B3F57A7F16D23E
:1056D00041F27808404F02A94046B84778B9029B8A
:1056E00013F0020F59D0BDF8063001339BB2ADF86C
:1056F0000630BDF806309BB2B3F57A7FEBD3039B3F
:10570000002B61D0039B0493BDF816309BB2ADF81B
:1057100016300498082205A9304B98478346002884
:105720004ED1049B08330493BAF1000F0AD00498B9
:105730004A465146294B98478346002840D1049B4E
:105740004B4404937CB1049BA5EB09051D440495CF
:10575000049832462146214B9847834600282FD192
:10576000049B1E440496039B9B000293029B43F000
:1057700002030293029941F26C00164B984783464C
:10578000F0B9174B984783461AE0BDF8163019FA5E
:1057900083F39BB2ADF8163060E703A911480E4BB6
:1057A00098470028ABD000230393A8E740F29F124C
:1057B0000D490E480E4CA0470E48A0470E48A04782
:1057C000584607B0BDE8F08F6FF0020BF8E700BF56
:1057D000355540001D684000116840008568400054
:1057E0009155400000041500300C4100040C4100AC
:1057F000D1964000840E4100E81841002DE9F043A5
:1058000087B0DFF8F892A24FA24EDFF8F482D5E01D
:10581000042204A90598A04B9847BDF812309BB20A
:10582000ADF812300446002830D1BDF812309BB2DA
:105830009D4205D0BDF812309BB2EB1A042B33DC2D
:105840009DF81030DBB2012B47D09DF81030DBB251
:10585000022B5FD09DF81030DBB2042B68D09DF88E
:105860001030DBB2062B71D09DF81030DBB2072B65
:105870007AD040F2022241463046884CA047884800
:10588000A0478848A0476FF0050496E04FF4EB72FC
:1058900041463046814DA8478348A8478148A847DC
:1058A0000120824B984788E040F2DF1241463046A3
:1058B0007A4CA047BDF812209DF810309DF81110C9
:1058C000009192B229467A48A0477648A047012025
:1058D000764B98476FF005046FE0764B1B6843B139
:1058E0009DF81100BDF812100839059A083289B2E6
:1058F0009847714B1B78002B5CD140F2092241463E
:105900003046664CA0476D48A0476648A0476C4BA0
:1059100098474FE06B4B1B68002BEAD09DF81100B5
:10592000BDF812100839059A083289B29847E0E7A5
:10593000654B1B68002BDCD09DF81100BDF81210E0
:105940000839059A083289B29847D2E75F4B1B683D
:10595000002BCED09DF81100BDF812100839059A21
:10596000083289B29847C4E7594B1B68002BC0D056
:105970009DF81100BDF812100839059A083289B255
:105980009847B6E740F2112241463046434CA047C3
:105990005048A0474348A0476FF001042FE04FF460
:1059A0000672414630463D4CA04703994A48A047FD
:1059B0003C48A047494B9847044604BB99F800303F
:1059C000002B00F09F8099F80030013BDBB289F892
:1059D00000301FE040F21E22414630462F4DA847BE
:1059E0003F48A8472F48A84709E04FF409724146AD
:1059F00030462A4DA8473B48A8472A48A84740F2C6
:105A0000432239493046254DA84721463748A84703
:105A10002448A847B84704460028E6D103A941F224
:105A20007000334B984704460028D3D1039B13F0F2
:105A3000010FB4D01D4B9847039921F00101039148
:105A400041F270002B4B984704460028D7D1002222
:105A5000194B1A70039DC5F38B05002D92D006A932
:105A600041F8042D41F28400214B98470446002858
:105A70003FF4CEAE4FF4E77241463046074DA8479B
:105A80001D48A8470748A8470120084B984794E7B6
:105A900035554000040C410029684000D196400073
:105AA000F00C4100E8184100980C41004D524000B4
:105AB000B00C4100E0C34020CAC34020080D4100A3
:105AC000F5544000D4C34020D8C34020CCC340206C
:105AD000DCC340202C0D4100400D41009155400099
